:100000000C942A000C94BA060C94E7060C9414077E
:100010000C9447000C9447000C9447000C94470044
:100020000C9447000C9447000C9447000C94470034
:100030000C9447000C9447000C9447000C94470024
:100040000C9447000C9447000C9447000C94470014
:100050000C94470011241FBECFE5D8E0DEBFCDBF12
:1000600010E0A0E6B0E0E0EEFDE202C005900D92E7
:10007000A83DB107D9F710E0A8EDB0E001C01D928E
:10008000AA3DB107E1F70E9437140C94EE160C94C8
:100090000000EF92FF920F931F937B018C0120E0F1
:1000A00030E040E05FE40E94490388238CF0C801FF
:1000B000B70120E030E040E05FE40E94C1010E940F
:1000C000A9039B01AC01205030404040504806C07D
:1000D000C801B7010E94A9039B01AC01B901CA0183
:1000E0001F910F91FF90EF900895A0E0B0E0EBE733
:1000F000F0E00C94B716DC012B01FA019C919230D0
:1001000008F439C1EB018881823008F433C194309E
:1001100069F4843009F02FC111969C91119789815F
:10012000981709F428C1AFEBB0E025C1843009F479
:1001300021C18230A9F4923009F01DC19A01AD01AC
:1001400088E0EA010990AE01E90109929E0181501F
:10015000C1F7E201898111969C918923818308C1AD
:10016000923009F407C112962D903C901397EB0141
:100170008A819B811496AD90BD90CD90DC901797AD
:10018000EC80FD800E811F819101281B390BB90184
:1001900037FF04C066277727621B730B6032710537
:1001A0000CF061C0121613066CF537014801062EDB
:1001B00004C096948794779467940A94D2F721E0C8
:1001C00030E040E050E004C0220F331F441F551FB1
:1001D0006A95D2F721503040404050402E213F21B7
:1001E00040235123211531054105510521F021E01E
:1001F00030E040E050E079018A01E628F72808293C
:1002000019293CC0232BD1F1260E371E350146019A
:10021000062E04C096948794779467940A94D2F734
:1002200021E030E040E050E004C0220F331F441FC3
:10023000551F6A95D2F721503040404050402A2146
:100240003B214C215D21211531054105510521F04E
:1002500021E030E040E050E059016A01A628B728CB
:10026000C828D9280BC0821593052CF01C01AA249C
:10027000BB24650103C0EE24FF24870111969C91E5
:10028000D20111968C91981709F445C0992339F041
:10029000A80197012A193B094C095D0906C0A6016E
:1002A00095012E193F09400B510B57FD08C01182D3
:1002B0003382228224833583468357831DC081E0A5
:1002C00081833382228288279927DC01821B930B4A
:1002D000A40BB50B84839583A683B7830DC0220F2F
:1002E000331F441F551F24833583468357838281E0
:1002F000938101979383828324813581468157813D
:10030000DA01C9010197A109B1098F5F9F4FAF4F72
:10031000BF4328F30BC0918333822282EA0CFB1C7B
:100320000C1D1D1DE482F5820683178383E0808304
:10033000248135814681578157FF1AC0C901AA27F8
:1003400097FDA095BA2F81709070A070B0705695EF
:10035000479537952795822B932BA42BB52B848318
:100360009583A683B7838281938101969383828349
:10037000DF0101C0D201CD01CDB7DEB7E2E10C94BF
:10038000D316A0E2B0E0E7ECF1E00C94C316698369
:100390007A838B839C832D833E834F835887E9E048
:1003A000EE2EF12CEC0EFD1ECE010196B7010E943F
:1003B000D2048E010F5E1F4FCE010596B8010E9438
:1003C000D2048A8991E089278A8BC701B801AE01DE
:1003D000475E5F4F0E9475000E94FD03A096E6E015
:1003E0000C94DF16A0E2B0E0E8EFF1E00C94C31645
:1003F00069837A838B839C832D833E834F835887C5
:10040000F9E0EF2EF12CEC0EFD1ECE010196B701A6
:100410000E94D2048E010F5E1F4FCE010596B801D7
:100420000E94D204C701B801AE01475E5F4F0E942F
:1004300075000E94FD03A096E6E00C94DF16A0E292
:10044000B0E0E5E2F2E00C94B71669837A838B831F
:100450009C832D833E834F835887CE010196BE0136
:10046000675F7F4F0E94D204CE010596BE016F5E8A
:100470007F4F0E94D2049985923088F0898982301A
:10048000C8F0943019F4823051F404C0843029F457
:10049000923081F48FEB90E0C6C0923049F420E0B6
:1004A0009A858A89981321E02A87CE010996BBC0D4
:1004B000823049F420E09A858A89981321E02A8BBA
:1004C000CE014196B0C02D843E844F8458886D88FB
:1004D0007E888F88988CEE24FF248701AA24BB2471
:1004E000650140E050E060E070E0E0E0F0E0C10174
:1004F00081709070892BE9F0E60CF71C081D191D1E
:100500009A01AB012A0D3B1D4C1D5D1D80E090E062
:10051000A0E0B0E0E614F7040805190520F481E036
:1005200090E0A0E0B0E0BA01A901480F591F6A1F8E
:100530007B1FAA0CBB1CCC1CDD1C97FE08C081E0F5
:1005400090E0A0E0B0E0A82AB92ACA2ADB2A3196B6
:10055000E032F10549F0660C771C881C991C569412
:10056000479437942794C3CFFA85EA892B893C892D
:100570008B859C85280F391F2E5F3F4F17C0CA01FE
:1005800081709070892B61F016950795F794E79428
:1005900080E090E0A0E0B0E8E82AF92A0A2B1B2BC3
:1005A00076956795579547952F5F3F4F77FDE7CF36
:1005B0000CC0440F551F661F771F17FD4160EE0CDE
:1005C000FF1C001F111F21503040403090E05907A0
:1005D00090E0690790E4790760F32B8F3C8FDB0193
:1005E000CA018F779070A070B07080349105A1051A
:1005F000B10561F447FD0AC0E114F10401051105DC
:1006000029F0405C5F4F6F4F7F4F40781A8EFE1786
:1006100011F081E08A8F4D8F5E8F6F8F78A383E01A
:10062000898FCE0149960E94FD03A096E2E10C94C9
:10063000D316A8E1B0E0EFE1F3E00C94C3166983B0
:100640007A838B839C832D833E834F83588789E0F5
:10065000E82EF12CEC0EFD1ECE010196B7010E9492
:10066000D2048E010F5E1F4FCE010596B8010E9485
:10067000D2048985823040F08989823028F0C70110
:10068000B8010E944A0501C08FEF6896E6E00C941D
:10069000DF16A8E1B0E0EFE4F3E00C94C316698341
:1006A0007A838B839C832D833E834F83588789E095
:1006B000E82EF12CEC0EFD1ECE010196B7010E9432
:1006C000D2048E010F5E1F4FCE010596B8010E9425
:1006D000D2048985823040F08989823028F0C701B0
:1006E000B8010E944A0501C08FEF6896E6E00C94BD
:1006F000DF16A8E1B0E0EFE7F3E00C94C3166983DE
:100700007A838B839C832D833E834F83588789E034
:10071000E82EF12CEC0EFD1ECE010196B7010E94D1
:10072000D2048E010F5E1F4FCE010596B8010E94C4
:10073000D2048985823040F08989823028F0C7014F
:10074000B8010E944A0501C081E06896E6E00C9479
:10075000DF16ACE0B0E0EFEAF3E00C94C716698373
:100760007A838B839C83CE010196BE016B5F7F4FA2
:100770000E94D2048D81823061F1823050F1843048
:1007800021F48E81882351F12EC02F81388537FDC9
:1007900020C06E812F3131051CF06623F9F023C093
:1007A0008EE190E0821B930B29853A854B855C8511
:1007B00004C056954795379527958A95D2F76623B5
:1007C000B1F050954095309521953F4F4F4F5F4F79
:1007D0000EC020E030E040E050E009C02FEF3FEFD6
:1007E0004FEF5FE704C020E030E040E050E8B9019F
:1007F000CA012C96E2E00C94E316DF92EF92FF928E
:100800000F931F93FC01E480F58006811781D1804E
:100810008081823048F480E090E0A0E1B0E0E82AF6
:10082000F92A0A2B1B2BA5C0843009F49FC0823003
:1008300021F4EE24FF24870105C0E114F104010531
:10084000110519F4E0E0F0E096C0628173819FEF3A
:10085000623879070CF05BC022E83FEF261B370BAC
:100860002A3131052CF020E030E040E050E02AC091
:10087000B801A701022E04C0769567955795479554
:100880000A94D2F781E090E0A0E0B0E004C0880FC5
:10089000991FAA1FBB1F2A95D2F70197A109B10979
:1008A0008E219F21A023B1230097A105B10521F03E
:1008B00081E090E0A0E0B0E09A01AB01282B392B59
:1008C0004A2B5B2BDA01C9018F779070A070B07052
:1008D00080349105A105B10539F427FF09C0205CDA
:1008E0003F4F4F4F5F4F04C0215C3F4F4F4F5F4F13
:1008F000E0E0F0E02030A0E03A07A0E04A07A0E402
:100900005A0710F0E1E0F0E079018A0127C0603871
:10091000710564F5FB01E158FF4FD801C7018F77DE
:100920009070A070B07080349105A105B10539F4C4
:10093000E7FE0DC080E490E0A0E0B0E004C08FE3EB
:1009400090E0A0E0B0E0E80EF91E0A1F1B1F17FFA1
:1009500005C016950795F794E794319687E01695AC
:100960000795F794E7948A95D1F705C0EE24FF2404
:100970008701EFEFF0E06E2F679566276795902F60
:100980009F77D794DD24D7948E2F8695492F462BB9
:10099000582F5D29B701CA011F910F91FF90EF9069
:1009A000DF900895FC01DB01408151812281622F9B
:1009B0006F7770E0221F2227221F9381892F880FD3
:1009C000822B282F30E0991F9927991F11969C930D
:1009D000119721153105A9F54115510561057105DD
:1009E00011F482E037C082E89FEF13969C938E93B8
:1009F00012979A01AB0167E0220F331F441F551F66
:100A00006A95D1F783E08C930DC0220F331F441FEA
:100A1000551F12968D919C911397019713969C9355
:100A20008E931297203080E0380780E0480780E4FA
:100A3000580758F314962D933D934D935C93179755
:100A400008952F3F310579F4411551056105710570
:100A500019F484E08C93089564FF03C081E08C93C3
:100A600012C01C9210C02F57304013963C932E9307
:100A7000129783E08C9387E0440F551F661F771F02
:100A80008A95D1F7706414964D935D936D937C9322
:100A9000179708951F93DC01FB019C91923008F495
:100AA00047C08081823008F443C0943051F41196DD
:100AB0001C91843099F58181682F70E0611B710968
:100AC0003FC0843021F0923031F48230B9F181811D
:100AD000882389F12DC011961C9111978230F1F075
:100AE00081811817D9F412962D913C911397828128
:100AF00093818217930794F028173907BCF0149656
:100B00008D919D910D90BC91A02D248135814681C0
:100B10005781281739074A075B0718F4112341F05A
:100B20000AC082179307A407B50740F4112319F0F0
:100B300061E070E005C06FEF7FEF02C060E070E041
:100B4000CB011F910895DF93CF93CDB7DEB7E0E4DB
:100B5000F0E08EE88083AAE2B0E0EAE2F0E0808193
:100B600084608C93A0E4B0E0E0E4F0E080818F7BCF
:100B70008C93ABE2B0E0EBE2F0E0808182608C939A
:100B8000AAE2B0E0EAE2F0E080818F7D8C93AAE2F5
:100B9000B0E0EAE2F0E0808188608C93AAE2B0E005
:100BA000EAE2F0E0808180618C93A0E4B0E0E0E4D0
:100BB000F0E080818F778C93E9E2F0E087E6808334
:100BC000CF91DF910895DF93CF9300D0CDB7DEB7FB
:100BD0009A838983ECE2F0E089818083EBE2F0E0A4
:100BE00080818295869586958370882F90E08170AC
:100BF0009070009799F3ABE2B0E0EBE2F0E0808117
:100C000080648C930F900F90CF91DF910895DF93C4
:100C1000CF93CDB7DEB7EBE2F0E08081881F882765
:100C2000881F8130C1F7ABE2B0E0EBE2F0E08081F9
:100C300080688C93ECE2F0E08081882F90E0CF9187
:100C4000DF910895DF93CF93CDB7DEB7AFE5B0E086
:100C5000EFE5F0E080818F778C93AFE4B0E0EFE4D4
:100C6000F0E080818F7E8C93AFE4B0E0EFE4F0E0C1
:100C700080818F7B8C93AFE4B0E0EFE4F0E0808183
:100C800080628C93AFE4B0E0EFE4F0E080818068B4
:100C90008C93AFE4B0E0EFE4F0E080818E7F8C9342
:100CA000AFE4B0E0EFE4F0E0808182608C93AEE4EA
:100CB000B0E0EEE4F0E0808180618C93AEE4B0E0DF
:100CC000EEE4F0E0808188608C93AEE4B0E0EEE486
:100CD000F0E0808181608C93AEE4B0E0EEE4F0E07F
:100CE000808182608C93AEE4B0E0EEE4F0E080813D
:100CF0008B7F8C93AFE5B0E0EFE5F0E0808180681A
:100D00008C93CF91DF910895DF93CF9300D0CDB72F
:100D1000DEB79A838983EAE4F0E089819A8191833E
:100D200080830F900F90CF91DF910895DF93CF9341
:100D300000D0CDB7DEB79A838983E6E4F0E08981FD
:100D40009A81918380830F900F90CF91DF910895C6
:100D5000DF93CF9300D0CDB7DEB79A838983ECE4DD
:100D6000F0E089819A81918380830F900F90CF91D9
:100D7000DF9108951F920F920FB60F9211242F93B7
:100D80003F934F935F936F937F938F939F93AF9313
:100D9000BF93EF93FF93DF93CF93CDB7DEB7E0918F
:100DA000D800F091D9000995CF91DF91FF91EF9193
:100DB000BF91AF919F918F917F916F915F914F9173
:100DC0003F912F910F900FBE0F901F9018951F927B
:100DD0000F920FB60F9211242F933F934F935F936F
:100DE0006F937F938F939F93AF93BF93EF93FF93F3
:100DF000DF93CF93CDB7DEB7E091D800F091D90063
:100E00000995CF91DF91FF91EF91BF91AF919F91A4
:100E10008F917F916F915F914F913F912F910F90A3
:100E20000FBE0F901F9018951F920F920FB60F9242
:100E300011242F933F934F935F936F937F938F93DF
:100E40009F93AF93BF93EF93FF93DF93CF93CDB770
:100E5000DEB7E091D800F091D9000995CF91DF91EC
:100E6000FF91EF91BF91AF919F918F917F916F9182
:100E70005F914F913F912F910F900FBE0F901F9058
:100E80001895DF93CF9300D000D00F92CDB7DEB787
:100E90009A8389836B838B81282F30E03D832C8359
:100EA0008C819D818230910589F02C813D81233098
:100EB000310599F08C819D8181309105A1F4898162
:100EC0009A819093D9008093D8000DC089819A812E
:100ED0009093D9008093D80006C089819A8190931D
:100EE000D9008093D8000F900F900F900F900F9023
:100EF000CF91DF910895DF93CF93CDB7DEB7AFE504
:100F0000B0E0EFE5F0E080818F778C93A1E3B0E073
:100F1000E1E3F0E08081877F8C93A2E3B0E0E2E33D
:100F2000F0E0808188608C93A5E5B0E0E5E5F0E035
:100F3000808188608C93ABE5B0E0EBE5F0E08081E8
:100F400080688C93AFE5B0E0EFE5F0E080818068E9
:100F50008C93CF91DF910895DF93CF93CDB7DEB718
:100F600027970FB6F894DEBF0FBECDBF89836A8383
:100F70004B838B81813009F06FC08981282F30E04D
:100F80003F832E838E819F818130910549F12E818F
:100F90003F81223031052CF48E819F81009761F0D2
:100FA000CEC02E813F812230310571F18E819F812B
:100FB00083309105E9F1C3C0AAE3B0E0EAE3F0E0D1
:100FC0008081482F8A81282F30E081E090E0022E36
:100FD00002C0880F991F0A94E2F7842B8C93AFC04C
:100FE000A7E3B0E0E7E3F0E08081482F8A81282F73
:100FF00030E081E090E0022E02C0880F991F0A9431
:10100000E2F7842B8C939BC0A4E3B0E0E4E3F0E030
:101010008081482F8A81282F30E081E090E0022EE5
:1010200002C0880F991F0A94E2F7842B8C9387C023
:10103000A1E3B0E0E1E3F0E08081482F8A81282F2E
:1010400030E081E090E0022E02C0880F991F0A94E0
:10105000E2F7842B8C9373C08981282F30E03D8385
:101060002C838C819D818130910559F12C813D81AA
:10107000223031052CF48C819D81009769F05FC08E
:101080002C813D812230310589F18C819D81833015
:10109000910509F440C053C0AAE3B0E0EAE3F0E0F0
:1010A0008081482F8A81282F30E081E090E0022E55
:1010B00002C0880F991F0A94E2F7809584238C93CD
:1010C0003EC0A7E3B0E0E7E3F0E08081482F8A81EB
:1010D000282F30E081E090E0022E02C0880F991F97
:1010E0000A94E2F7809584238C9329C0A4E3B0E0AE
:1010F000E4E3F0E08081482F8A81282F30E081E00E
:1011000090E0022E02C0880F991F0A94E2F78095A2
:1011100084238C9314C0A1E3B0E0E1E3F0E080818C
:10112000482F8A81282F30E081E090E0022E02C013
:10113000880F991F0A94E2F7809584238C93279651
:101140000FB6F894DEBF0FBECDBFCF91DF910895EB
:10115000DF93CF93CDB7DEB727970FB6F894DEBFF6
:101160000FBECDBF89836A834B838B81813009F0A9
:101170006FC08981282F30E03F832E838E819F812D
:101180008130910549F12E813F81223031052CF4C7
:101190008E819F81009761F0CEC02E813F812230E9
:1011A000310571F18E819F8183309105E9F1C3C0D2
:1011B000ABE3B0E0EBE3F0E08081482F8A81282F99
:1011C00030E081E090E0022E02C0880F991F0A945F
:1011D000E2F7842B8C93AFC0A8E3B0E0E8E3F0E043
:1011E0008081482F8A81282F30E081E090E0022E14
:1011F00002C0880F991F0A94E2F7842B8C939BC03E
:10120000A5E3B0E0E5E3F0E08081482F8A81282F54
:1012100030E081E090E0022E02C0880F991F0A940E
:10122000E2F7842B8C9387C0A2E3B0E0E2E3F0E026
:101230008081482F8A81282F30E081E090E0022EC3
:1012400002C0880F991F0A94E2F7842B8C9373C015
:101250008981282F30E03D832C838C819D818130D2
:10126000910559F12C813D81223031052CF48C817E
:101270009D81009769F05FC02C813D81223031054E
:1012800089F18C819D818330910509F440C053C060
:10129000ABE3B0E0EBE3F0E08081482F8A81282FB8
:1012A00030E081E090E0022E02C0880F991F0A947E
:1012B000E2F7809584238C933EC0A8E3B0E0E8E396
:1012C000F0E08081482F8A81282F30E081E090E093
:1012D000022E02C0880F991F0A94E2F7809584239A
:1012E0008C9329C0A5E3B0E0E5E3F0E08081482FCE
:1012F0008A81282F30E081E090E0022E02C0880F22
:10130000991F0A94E2F7809584238C9314C0A2E37A
:10131000B0E0E2E3F0E08081482F8A81282F30E0BE
:1013200081E090E0022E02C0880F991F0A94E2F734
:10133000809584238C9327960FB6F894DEBF0FBE5A
:10134000CDBFCF91DF910895DF93CF9300D000D030
:101350000F92CDB7DEB78A836B838A81282F30E066
:101360003D832C834C815D814130510541F18C815D
:101370009D818230910534F42C813D812115310508
:1013800061F052C04C815D814230510551F18C8138
:101390009D8183309105B9F147C0E9E3F0E0808198
:1013A000282F30E08B81882F90E0A90102C055954D
:1013B00047958A95E2F7CA018170898335C0E6E3D3
:1013C000F0E08081282F30E08B81882F90E0A90108
:1013D00002C0559547958A95E2F7CA0181708983C5
:1013E00023C0E3E3F0E08081282F30E08B81882F59
:1013F00090E0A90102C0559547958A95E2F7CA0188
:101400008170898311C0E0E3F0E08081282F30E013
:101410008B81882F90E0A90102C0559547958A9548
:10142000E2F7CA018170898389810F900F900F9034
:101430000F900F90CF91DF910895DF93CF9300D05D
:1014400000D0CDB7DEB789836A838981282F30E049
:101450003C832B838B819C8181309105D1F02B8142
:101460003C81223031052CF48B819C81009761F006
:101470001EC02B813C812230310581F08B819C8103
:101480008330910581F013C0EAE3F0E08A81808324
:101490000EC0E7E3F0E08A81808309C0E4E3F0E076
:1014A0008A81808304C0E1E3F0E08A8180830F9029
:1014B0000F900F900F90CF91DF910895DF93CF930E
:1014C00000D000D0CDB7DEB789836A838981282F09
:1014D00030E03C832B838B819C8181309105D1F05E
:1014E0002B813C81223031052CF48B819C8100972B
:1014F00061F01EC02B813C812230310581F08B814F
:101500009C818330910581F013C0EBE3F0E08A8188
:1015100080830EC0E8E3F0E08A81808309C0E5E3C0
:10152000F0E08A81808304C0E2E3F0E08A81808376
:101530000F900F900F900F90CF91DF910895DF9350
:10154000CF9300D000D0CDB7DEB78A838A81282F11
:1015500030E03C832B838B819C8181309105D1F0DD
:101560002B813C81223031052CF48B819C810097AA
:1015700061F01EC02B813C812230310581F08B81CE
:101580009C818330910581F013C0E9E3F0E0808114
:1015900089830EC0E6E3F0E08081898309C0E3E33C
:1015A000F0E08081898304C0E0E3F0E080818983FA
:1015B00089810F900F900F900F90CF91DF91089538
:1015C000DF93CF93CDB7DEB7A7E2B0E0E7E2F0E07C
:1015D000808180688C93A7E2B0E0E7E2F0E0808150
:1015E00080648C93A7E2B0E0E7E2F0E08081807E47
:1015F0008C93A6E2B0E0E6E2F0E0808180688C9314
:10160000A6E2B0E0E6E2F0E08081877F8C93A6E27C
:10161000B0E0E6E2F0E0808184608C93A6E2B0E086
:10162000E6E2F0E0808182608C93A6E2B0E0E6E240
:10163000F0E080818E7F8C93CF91DF910895DF93CE
:10164000CF93CDB7DEB7A6E2B0E0E6E2F0E080816E
:1016500080648C93CF91DF910895DF93CF930F92A5
:10166000CDB7DEB78983A7E2B0E0E7E2F0E08081A2
:10167000982F907E89818F71892B8C930E941F0BEC
:10168000E6E2F0E0808182958F70882F90E0817093
:1016900090700097A9F3A6E2B0E0E6E2F0E0808166
:1016A00080618C93E4E2F0E0808191810F90CF9192
:1016B000DF910895DF93CF93CDB7DEB7A1E3B0E01C
:1016C000E1E3F0E0808180628C930E94220684EC4A
:1016D00099E00E949606CF91DF910895DF93CF9312
:1016E00000D000D0CDB7DEB79C838B831A821982DD
:1016F0002B813C818AEF90E0AC01249FC001259FA3
:10170000900D349F900D112424EB30E0B9010E941C
:10171000A316CB019A83898389819A810E948406CA
:101720000F900F900F900F90CF91DF910895DF935E
:10173000CF93CDB7DEB7E8970FB6F894DEBF0FBEF4
:10174000CDBF82E06FEF0E941D0A81E060E041E0C2
:101750000E94AC0781E061E041E00E94AC0781E0BB
:1017600062E041E00E94AC0780E090E0A8E4B2E4CF
:101770008DAB9EABAFABB8AF6DA97EA98FA998AD6D
:1017800020E030E04AEF54E40E941F02DC01CB016C
:1017900089AB9AABABABBCAB69A97AA98BA99CA965
:1017A00020E030E040E85FE30E94790388232CF4D6
:1017B00081E090E098AB8FA73FC069A97AA98BA977
:1017C0009CA920E03FEF4FE757E40E941903181649
:1017D0004CF56DA97EA98FA998AD20E030E040E2DC
:1017E00051E40E941F02DC01CB01BC01CD010E942B
:1017F0004900DC01CB0198AB8FA70FC088EC90E0CB
:101800009EA78DA78DA59EA50197F1F79EA78DA7F1
:101810008FA598A9019798AB8FA78FA598A9009736
:1018200069F714C069A97AA98BA99CA90E944900EB
:10183000DC01CB0198AB8FA78FA598A99CA78BA79C
:101840008BA59CA50197F1F79CA78BA788E30E9425
:101850008E0D80E090E0A8E4B2E48FA398A7A9A73A
:10186000BAA76FA178A589A59AA520E030E04AEF34
:1018700054E40E941F02DC01CB018BA39CA3ADA307
:10188000BEA36BA17CA18DA19EA120E030E040E829
:101890005FE30E94790388232CF481E090E09AA30F
:1018A00089A33FC06BA17CA18DA19EA120E03FEF49
:1018B0004FE757E40E94190318164CF56FA178A55D
:1018C00089A59AA520E030E040E251E40E941F0281
:1018D000DC01CB01BC01CD010E944900DC01CB0140
:1018E0009AA389A30FC088EC90E098A38F8F8F8D67
:1018F00098A10197F1F798A38F8F89A19AA10197D9
:101900009AA389A389A19AA1009769F714C06BA132
:101910007CA18DA19EA10E944900DC01CB019AA36C
:1019200089A389A19AA19E8F8D8F8D8D9E8D019700
:10193000F1F79E8F8D8F8CE00E948E0D80E090E0FD
:10194000A8E4B2E4898F9A8FAB8FBC8F698D7A8DB2
:101950008B8D9C8D20E030E04AEF54E40E941F0202
:10196000DC01CB018D8B9E8BAF8BB88F6D897E890F
:101970008F89988D20E030E040E85FE30E94790392
:1019800088232CF481E090E09C8B8B8B3FC06D8989
:101990007E898F89988D20E03FEF4FE757E40E94C2
:1019A000190318164CF5698D7A8D8B8D9C8D20E06E
:1019B00030E040E251E40E941F02DC01CB01BC0197
:1019C000CD010E944900DC01CB019C8B8B8B0FC0A9
:1019D00088EC90E09A8B898B89899A890197F1F735
:1019E0009A8B898B8B899C8901979C8B8B8B8B899C
:1019F0009C89009769F714C06D897E898F89988DBD
:101A00000E944900DC01CB019C8B8B8B8B899C89CC
:101A1000988B8F878F8598890197F1F7988B8F879F
:101A200081E00E948E0D80E090E0A8E4B2E48B8714
:101A30009C87AD87BE876B857C858D859E8520E0E4
:101A400030E04AEF54E40E941F02DC01CB018F8397
:101A50009887A987BA876F81788589859A8520E0DC
:101A600030E040E85FE30E94790388232CF481E0B2
:101A700090E09E838D833FC06F81788589859A85AC
:101A800020E03FEF4FE757E40E94190318164CF58A
:101A90006B857C858D859E8520E030E040E251E4B9
:101AA0000E941F02DC01CB01BC01CD010E94490054
:101AB000DC01CB019E838D830FC088EC90E09C837A
:101AC0008B838B819C810197F1F79C838B838D8124
:101AD0009E8101979E838D838D819E81009769F7FA
:101AE00014C06F81788589859A850E944900DC0140
:101AF000CB019E838D838D819E819A838983898189
:101B00009A810197F1F79A838983E8960FB6F89442
:101B1000DEBF0FBECDBFCF91DF910895DF93CF938E
:101B2000CDB7DEB7E9970FB6F894DEBF0FBECDBFD5
:101B300089AF81E060E040E00E94A80881E061E0B8
:101B400040E00E94A80881E062E040E00E94A8080E
:101B500080E090E0A8E4B2E48DAB9EABAFABB8AF51
:101B60006DA97EA98FA998AD20E030E04AEF54E43A
:101B70000E941F02DC01CB0189AB9AABABABBCABC3
:101B800069A97AA98BA99CA920E030E040E85FE32D
:101B90000E94790388232CF481E090E098AB8FA712
:101BA0003FC069A97AA98BA99CA920E03FEF4FE724
:101BB00057E40E94190318164CF56DA97EA98FA948
:101BC00098AD20E030E040E251E40E941F02DC01C9
:101BD000CB01BC01CD010E944900DC01CB0198ABD7
:101BE0008FA70FC088EC90E09EA78DA78DA59EA51E
:101BF0000197F1F79EA78DA78FA598A9019798AB9C
:101C00008FA78FA598A9009769F714C069A97AA929
:101C10008BA99CA90E944900DC01CB0198AB8FA73E
:101C20008FA598A99CA78BA78BA59CA50197F1F7D9
:101C30009CA78BA781E062E041E00E94A80880E0B9
:101C400090E0A8E4B2E48FA398A7A9A7BAA76FA1D0
:101C500078A589A59AA520E030E04AEF54E40E94D7
:101C60001F02DC01CB018BA39CA3ADA3BEA36BA180
:101C70007CA18DA19EA120E030E040E85FE30E94BE
:101C8000790388232CF481E090E09AA389A33FC0D4
:101C90006BA17CA18DA19EA120E03FEF4FE757E40F
:101CA0000E94190318164CF56FA178A589A59AA56D
:101CB00020E030E040E251E40E941F02DC01CB0151
:101CC000BC01CD010E944900DC01CB019AA389A38C
:101CD0000FC088EC90E098A38F8F8F8D98A101970B
:101CE000F1F798A38F8F89A19AA101979AA389A34D
:101CF00089A19AA1009769F714C06BA17CA18DA15D
:101D00009EA10E944900DC01CB019AA389A389A16D
:101D10009AA19E8F8D8F8D8D9E8D0197F1F79E8F4D
:101D20008D8F82E069AD0E945E0A82E069AD0E94FB
:101D30005E0A80E090E0A8E4B2E4898F9A8FAB8FCE
:101D4000BC8F698D7A8D8B8D9C8D20E030E04AEFC1
:101D500054E40E941F02DC01CB018D8B9E8BAF8B64
:101D6000B88F6D897E898F89988D20E030E040E8BA
:101D70005FE30E94790388232CF481E090E09C8B40
:101D80008B8B3FC06D897E898F89988D20E03FEFD6
:101D90004FE757E40E94190318164CF5698D7A8DA8
:101DA0008B8D9C8D20E030E040E251E40E941F02C8
:101DB000DC01CB01BC01CD010E944900DC01CB015B
:101DC0009C8B8B8B0FC088EC90E09A8B898B8989D8
:101DD0009A890197F1F79A8B898B8B899C89019756
:101DE0009C8B8B8B8B899C89009769F714C06D89BC
:101DF0007E898F89988D0E944900DC01CB019C8BE4
:101E00008B8B8B899C89988B8F878F85988901977D
:101E1000F1F7988B8F8781E062E040E00E94A8088C
:101E200080E090E0A8E4B2E48B879C87AD87BE8712
:101E30006B857C858D859E8520E030E04AEF54E4FB
:101E40000E941F02DC01CB018F839887A987BA8784
:101E50006F81788589859A8520E030E040E85FE3EE
:101E60000E94790388232CF481E090E09E838D8387
:101E70003FC06F81788589859A8520E03FEF4FE7E5
:101E800057E40E94190318164CF56B857C858D85E7
:101E90009E8520E030E040E251E40E941F02DC0118
:101EA000CB01BC01CD010E944900DC01CB019E8326
:101EB0008D830FC088EC90E09C838B838B819C8109
:101EC0000197F1F79C838B838D819E8101979E837F
:101ED0008D838D819E81009769F714C06F8178850D
:101EE00089859A850E944900DC01CB019E838D8300
:101EF0008D819E819A83898389819A810197F1F7E7
:101F00009A838983E9960FB6F894DEBF0FBECDBFE2
:101F1000CF91DF910895DF93CF93CDB7DEB7E997E7
:101F20000FB6F894DEBF0FBECDBF89AF81E060E091
:101F300041E00E94A80881E061E040E00E94A8081A
:101F400081E062E040E00E94A80880E090E0A8E420
:101F5000B2E48DAB9EABAFABB8AF6DA97EA98FA934
:101F600098AD20E030E04AEF54E40E941F02DC010B
:101F7000CB0189AB9AABABABBCAB69A97AA98BA9F6
:101F80009CA920E030E040E85FE30E9479038823C9
:101F90002CF481E090E098AB8FA73FC069A97AA9A3
:101FA0008BA99CA920E03FEF4FE757E40E9419035B
:101FB00018164CF56DA97EA98FA998AD20E030E0E8
:101FC00040E251E40E941F02DC01CB01BC01CD01C3
:101FD0000E944900DC01CB0198AB8FA70FC088ECB1
:101FE00090E09EA78DA78DA59EA50197F1F79EA7CE
:101FF0008DA78FA598A9019798AB8FA78FA598A9B2
:10200000009769F714C069A97AA98BA99CA90E94B5
:102010004900DC01CB0198AB8FA78FA598A99CA79D
:102020008BA78BA59CA50197F1F79CA78BA781E0B7
:1020300062E041E00E94A80880E090E0A8E4B2E4F9
:102040008FA398A7A9A7BAA76FA178A589A59AA5D4
:1020500020E030E04AEF54E40E941F02DC01CB0193
:102060008BA39CA3ADA3BEA36BA17CA18DA19EA1BC
:1020700020E030E040E85FE30E94790388232CF4FD
:1020800081E090E09AA389A33FC06BA17CA18DA1C0
:102090009EA120E03FEF4FE757E40E941903181676
:1020A0004CF56FA178A589A59AA520E030E040E223
:1020B00051E40E941F02DC01CB01BC01CD010E9452
:1020C0004900DC01CB019AA389A30FC088EC90E002
:1020D00098A38F8F8F8D98A10197F1F798A38F8F79
:1020E00089A19AA101979AA389A389A19AA100978E
:1020F00069F714C06BA17CA18DA19EA10E9449002B
:10210000DC01CB019AA389A389A19AA19E8F8D8F0F
:102110008D8D9E8D0197F1F79E8F8D8F82E069AD39
:102120000E945E0A80E090E0A8E4B2E4898F9A8F72
:10213000AB8FBC8F698D7A8D8B8D9C8D20E030E0CC
:102140004AEF54E40E941F02DC01CB018D8B9E8B71
:10215000AF8BB88F6D897E898F89988D20E030E0B4
:1021600040E85FE30E94790388232CF481E090E04B
:102170009C8B8B8B3FC06D897E898F89988D20E0E9
:102180003FEF4FE757E40E94190318164CF5698D8D
:102190007A8D8B8D9C8D20E030E040E251E40E94EE
:1021A0001F02DC01CB01BC01CD010E944900DC0112
:1021B000CB019C8B8B8B0FC088EC90E09A8B898B2A
:1021C00089899A890197F1F79A8B898B8B899C89E8
:1021D00001979C8B8B8B8B899C89009769F714C026
:1021E0006D897E898F89988D0E944900DC01CB0121
:1021F0009C8B8B8B8B899C89988B8F878F859889FB
:102200000197F1F7988B8F8781E062E040E00E94B0
:10221000A80880E090E0A8E4B2E48B879C87AD87B3
:10222000BE876B857C858D859E8520E030E04AEFFA
:1022300054E40E941F02DC01CB018F839887A98799
:10224000BA876F81788589859A8520E030E040E8FB
:102250005FE30E94790388232CF481E090E09E8361
:102260008D833FC06F81788589859A8520E03FEF17
:102270004FE757E40E94190318164CF56B857C85CF
:102280008D859E8520E030E040E251E40E941F02EF
:10229000DC01CB01BC01CD010E944900DC01CB0176
:1022A0009E838D830FC088EC90E09C838B838B8111
:1022B0009C810197F1F79C838B838D819E8101978F
:1022C0009E838D838D819E81009769F714C06F81F5
:1022D000788589859A850E944900DC01CB019E831F
:1022E0008D838D819E819A83898389819A810197CB
:1022F000F1F79A838983E9960FB6F894DEBF0FBE93
:10230000CDBFCF91DF910895DF93CF9300D00F928F
:10231000CDB7DEB79B838A8319820EC08981282FAF
:1023200030E08A819B81FC01E20FF31F80810E94D3
:102330008B0F89818F5F89838981282F30E08A8183
:102340009B81FC01E20FF31F8081882339F70F90F6
:102350000F900F90CF91DF910895DF93CF9300D02E
:102360000F92CDB7DEB78A836B838A81882319F4F5
:102370008B81898306C08A81813019F48B81805CCE
:102380008983898180680E948E0D0F900F900F9035
:10239000CF91DF910895DF93CF9300D000D0CDB7D8
:1023A000DEB79A8389836B834C838B816C810E9417
:1023B000AD1189819A810E9484110F900F900F9026
:1023C0000F90CF91DF910895DF93CF93CDB7DEB714
:1023D0002D970FB6F894DEBF0FBECDBF9D878C87BB
:1023E0001E821D821C8221C08E81E82FF0E08C8528
:1023F0009D852AE030E0B9010E94A316282F205DB8
:10240000CE010796E80FF91F20838C859D852AE071
:1024100030E0B9010E94A316CB019D878C878E8185
:102420008F5F8E838C818F5F8C838C859D850097D9
:10243000D9F68E8186958B831A822CC08E8181502D
:102440008E838E81282F30E0CE010796FC01E20FAB
:10245000F31F80818D838E81482F50E08A81282F41
:1024600030E0CE010796FC01E20FF31F2081CE0180
:102470000796FC01E40FF51F20838A81282F30E0A6
:10248000CE010796FC01E20FF31F8D8180838A81C4
:102490008F5F8A839A818B81981780F28C81282F95
:1024A00030E0CE010796FC01E20FF31F1082198283
:1024B00028C08981282F30E0CE010796FC01E20F69
:1024C000F31F8081803358F08981282F30E0CE01BE
:1024D0000796FC01E20FF31F80818A3320F080E22F
:1024E0000E948B0F0BC08981282F30E0CE01079608
:1024F000FC01E20FF31F80810E948B0F89818F5FA7
:10250000898399818C819817A0F22D960FB6F89443
:10251000DEBF0FBECDBFCF91DF910895DF93CF9384
:10252000CDB7DEB7A1E3B0E0E1E3F0E080818E7FDC
:102530008C93A1E3B0E0E1E3F0E0808182608C93D2
:102540000E94A305CF91DF910895DF93CF930F925F
:10255000CDB7DEB719820E940706898389810E9460
:102560008B0F0F90CF91DF910895DF93CF93CDB76D
:10257000DEB727970FB6F894DEBF0FBECDBF1D8222
:102580001C821B821A8219820E9407068D838D810C
:102590000E948B0F0E9407068B838B810E948B0FFA
:1025A0000E9407068C838C810E948B0F0E94070675
:1025B0008A838A810E948B0F8D8180538D838C81C9
:1025C00080538C838B81282F30E03F832E838E8134
:1025D0009F818B329105D9F02E813F812C323105BC
:1025E0005CF48E819F818532910511F12E813F81AE
:1025F0002A32310589F036C08E819F818D32910556
:1026000091F02E813F812F323105D1F02BC08D8189
:102610009C81890F89832DC08D819C81899F802D0C
:102620001124898326C08D819C81891B898321C0C7
:102630008D819C81692F0E949716892F898319C0EB
:102640008C81882341F481E00E948E0D80E690E029
:102650000E9484111DC08D819C81692F0E94971654
:10266000898307C081E00E948E0D80E690E00E9481
:1026700084118A818D3361F48981882321F480E378
:102680000E948B0F05C08981882F90E00E94E41181
:1026900027960FB6F894DEBF0FBECDBFCF91DF9166
:1026A0000895DF93CF93CDB7DEB780E060E041E0DF
:1026B0000E94AC0780E061E041E00E94AC0780E04E
:1026C00062E041E00E94AC0780E063E041E00E94EC
:1026D000AC0780E060E041E00E94A80880E061E093
:1026E00041E00E94A80880E062E041E00E94A80862
:1026F00080E063E041E00E94A80880E064E040E000
:102700000E94AC0780E065E040E00E94AC0780E0FA
:1027100066E040E00E94AC0780E067E040E00E9495
:10272000AC0780E064E041E00E94A80880E065E03A
:1027300041E00E94A80880E066E041E00E94A8080D
:1027400080E067E041E00E94A808CF91DF91089502
:10275000DF93CF9300D000D0CDB7DEB719821B82B4
:102760003FC080E06B8140E00E94A80884E08A833B
:102770002CC080E06A810E94A409882319F580E0BA
:102780006A810E94A4098823D1F38A81882F90E06E
:10279000AC01445050408B81282F30E0CA01880F93
:1027A000991F880F991F820F931FFC01E953FF4F58
:1027B0008081898380E06B8141E00E94A808898143
:1027C0008C8314C08A818F5F8A838A81883088F2E3
:1027D00080E06B8141E00E94A8088B818F5F8B8332
:1027E0008B81843008F4BDCF89818C838C810F90DC
:1027F0000F900F900F90CF91DF910895DF93CF93BB
:10280000CDB7DEB70E94A305A1E3B0E0E1E3F0E0BD
:10281000808182608C93A1E3B0E0E1E3F0E080810D
:102820008E7F8C93CF91DF910895DF93CF9300D06B
:10283000CDB7DEB71A8219820E9407069A83898370
:1028400089819A810F900F90CF91DF910895DF9346
:10285000CF9300D0CDB7DEB79A83898389819A81DF
:102860000E94E3050F900F90CF91DF910895DF93C1
:10287000CF93CDB7DEB7E5970FB6F894DEBF0FBEA6
:10288000CDBF1DAA84EB8CABE7E3F0E08FEF808334
:1028900081E090E09BAB8AAB81E089AB18AA1FA6D0
:1028A0001EA61DA61CA61BA60E945A0B0E94511311
:1028B0000E94970B0E94FE138DA9882F90E00E9422
:1028C0006E0B8BE690E00E9484110E94A81389ABE6
:1028D0000E9415149BAB8AAB80E090E0A0EFB1E4BE
:1028E0008FA398A7A9A7BAA76FA178A589A59AA52C
:1028F00020E030E04AEF54E40E941F02DC01CB01EB
:102900008BA39CA3ADA3BEA36BA17CA18DA19EA113
:1029100020E030E040E85FE30E94790388232CF454
:1029200081E090E09AA389A33FC06BA17CA18DA117
:102930009EA120E03FEF4FE757E40E9419031816CD
:102940004CF56FA178A589A59AA520E030E040E27A
:1029500051E40E941F02DC01CB01BC01CD010E94A9
:102960004900DC01CB019AA389A30FC088EC90E059
:1029700098A38F8F8F8D98A10197F1F798A38F8FD0
:1029800089A19AA101979AA389A389A19AA10097E5
:1029900069F714C06BA17CA18DA19EA10E94490082
:1029A000DC01CB019AA389A389A19AA19E8F8D8F67
:1029B0008D8D9E8D0197F1F79E8F8D8F89A988232C
:1029C00091F18FA5843078F589A98B3261F189A9BD
:1029D0008F3249F188A9882331F58BA5882319F412
:1029E00081E00E948E0D81E08BA78CA59DA59C01A6
:1029F000220F331FC901880F991F880F991F280FB5
:102A0000391F89A9882F90E0820F931FC0979DA737
:102A10008CA780E06FA50E94AD1189A90E948B0F41
:102A20008FA58F5F8FA789A98B3231F08AA99BA9C7
:102A30008634910509F05CC188A9882309F058C142
:102A400081E00E948E0D1FA61BA68CA59DA524E0EB
:102A5000823D920729F08AA99BA98634910571F4D9
:102A600081E088AB1DA61CA68AE790E00E94841135
:102A70008CA9882F90E00E946E0B27CF1DA61CA664
:102A80008EA58F5F8EA788E890E00E94841181E078
:102A900060E00E94AD1187E990E00E94841180E01F
:102AA00090E0A8ECB2E4898F9A8FAB8FBC8F698DD0
:102AB0007A8D8B8D9C8D20E030E04AEF54E40E94AB
:102AC0001F02DC01CB018D8B9E8BAF8BB88F6D8984
:102AD0007E898F89988D20E030E040E85FE30E9496
:102AE000790388232CF481E090E09C8B8B8B3FC092
:102AF0006D897E898F89988D20E03FEF4FE757E4FD
:102B00000E94190318164CF5698D7A8D8B8D9C8D5A
:102B100020E030E040E251E40E941F02DC01CB01E2
:102B2000BC01CD010E944900DC01CB019C8B8B8B49
:102B30000FC088EC90E09A8B898B89899A890197DC
:102B4000F1F79A8B898B8B899C8901979C8B8B8B56
:102B50008B899C89009769F714C06D897E898F895C
:102B6000988D0E944900DC01CB019C8B8B8B8B895B
:102B70009C89988B8F878F8598890197F1F7988B1F
:102B80008F878DA9882F90E00E946E0B81E00E94B4
:102B90008E0D8EA5833028F48BE690E00E94841180
:102BA00094CE81EA90E00E94841185C0A8E3B0E051
:102BB000E8E3F0E0908180E889278C93A8E3B0E017
:102BC000E8E3F0E0908180E489278C9380E090E056
:102BD000AAEFB4E48B879C87AD87BE876B857C8525
:102BE0008D859E8520E030E04AEF54E40E941F026C
:102BF000DC01CB018F839887A987BA876F8178859D
:102C000089859A8520E030E040E85FE30E947903FF
:102C100088232CF481E090E09E838D833FC06F81F8
:102C2000788589859A8520E03FEF4FE757E40E9439
:102C3000190318164CF56B857C858D859E8520E0E3
:102C400030E040E251E40E941F02DC01CB01BC01F4
:102C5000CD010E944900DC01CB019E838D830FC012
:102C600088EC90E09C838B838B819C810197F1F7AA
:102C70009C838B838D819E8101979E838D838D8123
:102C80009E81009769F714C06F81788589859A8540
:102C90000E944900DC01CB019E838D838D819E8142
:102CA0009A83898389819A810197F1F79A8389832D
:102CB0008EA581508EA78EA5843008F477CFA8E327
:102CC000B0E0E8E3F0E0808180688C93A8E3B0E0B6
:102CD000E8E3F0E0808180648C9380E090E0E5960A
:102CE0000FB6F894DEBF0FBECDBFCF91DF91089530
:102CF0008AA99BA98234910521F089A98F3209F014
:102D0000E4CD88A9813009F0E0CD18AA1DA61CA643
:102D100081E089AB81E00E948E0D81EB90E00E9402
:102D200084118DA9882F90E00E946E0BCECD991B47
:102D300079E004C0991F961708F0961B881F7A95B2
:102D4000C9F780950895AA1BBB1B51E107C0AA1FB4
:102D5000BB1FA617B70710F0A61BB70B881F991F3C
:102D60005A95A9F780959095BC01CD0108952F92B1
:102D70003F924F925F926F927F928F929F92AF920B
:102D8000BF92CF92DF92EF92FF920F931F93CF9358
:102D9000DF93CDB7DEB7CA1BDB0B0FB6F894DEBFEF
:102DA0000FBECDBF09942A88398848885F846E8415
:102DB0007D848C849B84AA84B984C884DF80EE805F
:102DC000FD800C811B81AA81B981CE0FD11D0FB668
:102DD000F894DEBF0FBECDBFED010895F894FFCF8C
:102DE0004D415448204572726F2100456E746572E2
:102DF0005F70617373776F72640073797374656D5C
:102E00005F6F70656E6564004572726F725F7061AE
:102E10007373776F7264005472795F616761696E72
:102E20000073797374656D5F6E6F745F736166654F
:102E30000073797374656D5F636C6F736564000014
:102E4000000000000000003132332B3435362D37BE
:082E500038392A25303D2F001E
:00000001FF
